:100000000000012079030000610300006303000089
:1000100065030000670300006903000000000000A2
:100020000000000000000000000000006B03000062
:100030006D030000000000006F030000710300006A
:1000400073030000730300007303000073030000D8
:1000500073030000730300004D07000073030000EA
:1000600073030000730300007303000073030000B8
:1000700073030000730300007303000073030000A8
:100080007303000073030000730300007303000098
:100090007303000073030000730300007303000088
:1000A0007303000073030000730300007303000078
:1000B0007303000073030000000000000000000054
:1000C0007303000073030000730300007303000058
:1000D00073030000730300007303000000000000BE
:1000E0000000000000000000000000000000000010
:1000F0000000000000000000000000000000000000
:1001000000000000000000000000000000000000EF
:1001100000000000000000000000000000000000DF
:1001200000000000000000000000000000000000CF
:1001300000000000000000000000000000000000BF
:1001400000000000000000000000000000000000AF
:10015000000000000000000000000000000000009F
:10016000000000000000000000000000000000008F
:10017000000000000000000000000000000000007F
:10018000000000000000000000000000000000006F
:10019000000000000000000000000000000000005F
:1001A000000000000000000000000000000000004F
:1001B000000000000000000000000000000000003F
:1001C000000000000000000000000000000000002F
:1001D000000000000000000000000000000000001F
:1001E000000000000000000000000000000000000F
:1001F00000000000000000000000000000000000FF
:10020000364937480A1A02D0072291438D463549AC
:1002100035480A1A06D00722914381F30988022241
:1002200082F3148831483249324A00F045F83248A6
:100230003249334A00F040F832483349334A00F03B
:100240003BF833483349344A00F036F833483449F0
:10025000344A00F031F834483449354A00F02CF87B
:1002600034483549354A00F027F8354835490022E9
:1002700000F02DF834483549002200F028F83448C1
:100280003449091A082903DB0022026004300160A6
:10029000314A90471F482049884205D002680430FF
:1002A00003B4904703BCF7E700208646EC460020E5
:1002B00000212A4A9047FEE7884207D0521A05D00B
:1002C000037801300B700131013AF9D1704788424F
:1002D00002D002700130FAE77047000000000120F0
:1002E00000E000200000012000000120500C000070
:1002F0000000002004000020D8030000D803000004
:100300004E0C0000500C00000000002000000020F7
:10031000500C0000500C0000500C0000500C00006D
:10032000500C0000500C0000500C0000500C00005D
:10033000500C0000540C00000400002004000020B9
:100340000400002050000020500000205000002039
:100350005000002050200020A1030000C50800002C
:10036000FEE7FEE7FEE7FEE7FEE7FEE7FEE7FEE765
:10037000FEE7FEE7704700BF1048804710484FF087
:100380000701884385460F4880470F48016841F4BC
:1003900070010160BFF34F8FBFF36F8FFFF730BF66
:1003A0000A480B490B4A884207D0521A05D00378F5
:1003B00001300B700131013AF9D17047750300002B
:1003C000000001208D09000088ED00E0500C0000C5
:0803D0000000002000000020E5
:1003D8001FB50021039001AA44F20100CDE90111E3
:1003E80000F004F805B05DF804FB000072B6094B94
:1003F8001B68DB0700D500BEBFF34F8F0649074BCC
:10040800CA6802F4E0621343CB60BFF34F8F00BFAA
:10041800FDE700BFF0ED00E000ED00E00400FA05A4
:1004280000F1804000F5C040002382B003600368FB
:100438000193019B02B07047800000F1A040D0F802
:10044800003723F44033C0F80037D0F8003743EAC8
:100458000141C0F800177047054B4FF0FF320728DD
:1004680043F8202084BF1B1883F83C20704700BF46
:100478000400002010B5174C94F8493043BBFF2105
:10048800E2180133202B82F82410F9D10021C8B2D8
:10049800FFF7E2FF01310929F9D1042200210E48B2
:1004A80000F09EFB0D4BC02283F806234022C3F8C0
:1004B80080214FF4BE701A60FFF7B2FF084B4FF06F
:1004C8000042C3F80423012384F84930002010BDFA
:1004D8000820FCE7040000204900002000E100E0BB
:1004E8000060004030B52E4C231893F924200132C7
:1004F80053D18A78002A4CD0002354F82350013570
:100508004FEA830240D1251802F1804202F5C04229
:1005180085F82430002544F82350D2F810550B787C
:100528004C7825F498151B04240525F4F85504F493
:10053800801403F44033C2F8105523430402D2F860
:10054800105504F4F85423432B43C2F810354A7865
:100558000123012A4FF0A04203FA00F30CBFC2F8AE
:100568000835C2F80C3500F5E073032142F8231072
:10057800C2080C49012300F0070003FA00F08B5C65
:1005880018438854002003E00133082BB5D1042018
:1005980030BDFE2283F82420D9E70820F8E700BF01
:1005A80004000020490000204FF0A0410122D1F8AA
:1005B800043502FA00F020EA03020340C1F80825D6
:1005C800C1F80C3570470000F0B5394D2C18944629
:1005D80094F92440002C68DA8E78C6F34006002E81
:1005E80015BF0023082308270927BB4201D104208F
:1005F800F0BD55F8232001324FEA830441D12F186A
:1006080045F823C087F8243016B9EA1882F83C0068
:100618008A78560716D4D70735D5820002F1A0424A
:10062800D2F8006726F00206C2F80067214FC60814
:1006380000F0070C012202FA0CF217F806C042EA91
:100648000C02BA558A780E7812F0020224D004F10E
:10065800804303F5C0430002D3F8102522F4473243
:1006680022F44072C3F810253604D3F8102500F49C
:10067800F85006F4403630431043C3F81005002004
:10068800B6E70133B1E74E7800F5E0724FF0A047C6
:10069800B60047F82260C9E7083B2B4493F84400AA
:1006A80040EA861683F84460E9E70820A0E700BF1F
:1006B800040000204900002038B5204C251895F981
:1006C8002420072A18DD224492F83C309B09032B8A
:1006D8000DD14FF0A043D3F81035C34013F0010FEC
:1006E8000CBF02210321BDE83840FFF7A5BE012B4E
:1006F80014BF03210221F6E7D3B2072B1CD89300BD
:1007080003F1804303F5C043D3F8100540F001001E
:10071800C3F8100502F14000800080B2FFF780FEA8
:1007280051B195F9243054F823302BB1012303FA41
:1007380002F2034BC3F8042338BD00BF04000020B5
:10074800006000402DE9F04385B00024544A554E1E
:10075800554D019401211368A2F5C040012B80B2C8
:1007680006D1D6F804330B4202D0FFF759FE0C43EA
:100778000432AA424FEA4101EDD14C4B1B68012BD0
:100788000AD14FF4BE70FFF74BFE4FF0A04344F080
:100798000044D3F81035019314F0FF0F1AD0444FDA
:1007A80001260025344210D0AB0003F1804303F545
:1007B800C043D3F81005D3F8101557F82530C0F307
:1007C8000420C1F3014103B198470135082D4FEAD0
:1007D8004606E7D1002C2EDA00224FF0FF33CDE990
:1007E8000223DFF8CC80012702AE98F94430DAB250
:1007F800013322F0C0041ED004A8E10800EB010C6C
:1008080002F007031CF8040C07FA03F3184212D08D
:1008180008EB0400920990F9240058F820509DB97B
:10082800032A08D112E04FF0010911462046A847D3
:10083800B9F1000F23D105B0BDE8F0830229FAD140
:10084800032A27D1114615E0032A02D1705C184308
:1008580070544FF0A04004F5E07150F821101CF8D6
:100868000C0C1842C1F30141E8D10329E3D1032A52
:1008780010D102212046FFF7DFFD002DD3D14FF024
:10088800A043019AD3F810359342D4D00193029B28
:100898000393AAE7002DCED04FF00009C5E700BFAB
:1008A8000061004000600040206100407C61004021
:1008B800040000201120FFF777BE000007B5FFF7FE
:1008C800D9FD08B1FFF784FD002369461120ADF872
:1008D80000308DF80230FFF705FE08B1FFF778FD0C
:1008E800022203238DF8062001A9084A8DF8043056
:1008F8000D208DF80530FFF767FE08B1FFF768FD9A
:1009080001210D20FFF7D8FEFEE700BFBD0800005B
:100918000C4B1B78062B10D10B4B1B681A070CD1FC
:100928000A4B186800F0F003302B08D000F0E00004
:10093800A0F14003584258417047002070470120F9
:10094800704700BFE00F00F0E40F00F0E80F00F080
:10095800094B1B78062B0CD1084B1B681A0708D1CA
:10096800074B186800F0F000A0F1300358425841D6
:1009780070470020704700BFE00F00F0E40F00F060
:10098800E80F00F008B5FFF7C3FF28B17D4B7E4A9A
:100998001B68C3F304231360FFF7DAFF10B17B4B26
:1009A8007B4A1A60FFF7B4FF28B17A4B7A4A1B6872
:1009B800C3F342331360FFF7CBFF20B1774AD36804
:1009C80023F08073D360FFF7A3FF40B14FF080435B
:1009D8000022C3F80C21C3F81021C3F83825FFF70B
:1009E800B7FF10B16E4B03221A60FFF7B1FF40B199
:1009F8006C4B05221A6001229A6700229A603F22F6
:100A08005A60694B1B78062B50D1684B1B68190735
:100A18004CD1674B1B6803F0F003502B46D14FF0C5
:100A28008052644BD2F80414C3F82015D2F8081485
:100A3800C3F82415D2F80C14C3F82815D2F81014EA
:100A4800C3F82C15D2F81414C3F83015D2F81814BA
:100A5800C3F83415D2F81C14C3F84015D2F8201482
:100A6800C3F84415D2F82414C3F84815D2F828144A
:100A7800C3F84C15D2F82C14C3F85015D2F830141A
:100A8800C3F85415D2F83414C3F86015D2F83814E2
:100A9800C3F86415D2F83C14C3F86815D2F84014AA
:100AA800C3F86C15D2F84424C3F87025FFF730FF5B
:100AB80028B1414B414A1B6803F04F031360FFF70D
:100AC80027FF48B14FF08043D3F80024D20744BF32
:100AD8006FF00102C3F80024394B1B68062B08D1BC
:100AE800384B1B68062B01BF374A136843F48063F1
:100AF8001360364AD2F8883043F47003C2F888305D
:100B0800BFF34F8FBFF36F8F4FF01023D3F800223E
:100B1800002A03DBD3F80432002B2FDA2C4B0122F6
:100B2800C3F80425D3F80024002AFBD04FF0102284
:100B38001521C2F80012D3F80024002AFBD04FF088
:100B480010231522C3F80422214B1A46D3F80014A7
:100B58000029FBD00021C3F80415D2F80034002B7B
:100B6800FBD0BFF34F8F19491A4BCA6802F4E062F1
:100B78001343CB60BFF34F8F00BFFDE7164B174AF7
:100B88001A6008BD240300104035014074C00740B6
:100B98000DF0ADBA440200103C050040F0ED00E055
:100BA800A005004010560040E00F00F0E40F00F0F0
:100BB800E80F00F000C0004058020010E40E0040AA
:100BC80030010010340100103C17004000ED00E037
:100BD80000E001400400FA05000000200090D00366
:100BE8008446002A2DD010F0030F04D000F8011B12
:100BF800013A26D0F7E7C9B241EA012141EA0141A9
:100C0800202A12D3A2F120022DE9F0030B460C464C
:100C18000D460E460F4688468946A0E8FA03203A54
:100C2800FBD2BDE8F00320320BD0042A05D340F8EC
:100C3800041B043A05D0042AF9D200F8011B013A32
:060C4800FBD1604670477D
:040C50000090D0033D
:04000003000003797D
:00000001FF
